{
  "_format": "hh-sol-artifact-1",
  "contractName": "FishTank",
  "sourceName": "contracts/Idea.sol",
  "abi": [
    {
      "inputs": [],
      "stateMutability": "nonpayable",
      "type": "constructor"
    },
    {
      "anonymous": false,
      "inputs": [
        {
          "indexed": false,
          "internalType": "uint256",
          "name": "id",
          "type": "uint256"
        }
      ],
      "name": "Cancel",
      "type": "event"
    },
    {
      "anonymous": false,
      "inputs": [
        {
          "indexed": true,
          "internalType": "uint256",
          "name": "id",
          "type": "uint256"
        },
        {
          "indexed": true,
          "internalType": "address",
          "name": "caller",
          "type": "address"
        },
        {
          "indexed": false,
          "internalType": "uint256",
          "name": "amount",
          "type": "uint256"
        }
      ],
      "name": "Invest",
      "type": "event"
    },
    {
      "anonymous": false,
      "inputs": [
        {
          "indexed": false,
          "internalType": "uint256",
          "name": "id",
          "type": "uint256"
        },
        {
          "indexed": true,
          "internalType": "address",
          "name": "creator",
          "type": "address"
        },
        {
          "indexed": false,
          "internalType": "uint256[3]",
          "name": "milestones",
          "type": "uint256[3]"
        },
        {
          "indexed": false,
          "internalType": "uint256",
          "name": "startAt",
          "type": "uint256"
        },
        {
          "indexed": false,
          "internalType": "uint32",
          "name": "endAt",
          "type": "uint32"
        }
      ],
      "name": "Launch",
      "type": "event"
    },
    {
      "anonymous": false,
      "inputs": [
        {
          "indexed": false,
          "internalType": "uint256",
          "name": "id",
          "type": "uint256"
        },
        {
          "indexed": true,
          "internalType": "address",
          "name": "caller",
          "type": "address"
        },
        {
          "indexed": false,
          "internalType": "uint256",
          "name": "amount",
          "type": "uint256"
        }
      ],
      "name": "Refund",
      "type": "event"
    },
    {
      "inputs": [
        {
          "internalType": "uint256",
          "name": "_id",
          "type": "uint256"
        }
      ],
      "name": "cancel",
      "outputs": [],
      "stateMutability": "nonpayable",
      "type": "function"
    },
    {
      "inputs": [],
      "name": "count",
      "outputs": [
        {
          "internalType": "uint256",
          "name": "",
          "type": "uint256"
        }
      ],
      "stateMutability": "view",
      "type": "function"
    },
    {
      "inputs": [
        {
          "internalType": "uint256",
          "name": "",
          "type": "uint256"
        }
      ],
      "name": "ideas",
      "outputs": [
        {
          "internalType": "address",
          "name": "innovator",
          "type": "address"
        },
        {
          "internalType": "uint256",
          "name": "invested",
          "type": "uint256"
        },
        {
          "internalType": "uint256",
          "name": "claimed",
          "type": "uint256"
        },
        {
          "internalType": "uint256",
          "name": "startAt",
          "type": "uint256"
        },
        {
          "internalType": "uint256",
          "name": "endAt",
          "type": "uint256"
        },
        {
          "internalType": "bool",
          "name": "completed",
          "type": "bool"
        }
      ],
      "stateMutability": "view",
      "type": "function"
    },
    {
      "inputs": [
        {
          "internalType": "uint256",
          "name": "_id",
          "type": "uint256"
        }
      ],
      "name": "invest",
      "outputs": [],
      "stateMutability": "payable",
      "type": "function"
    },
    {
      "inputs": [
        {
          "internalType": "uint256[3]",
          "name": "_milestones",
          "type": "uint256[3]"
        },
        {
          "internalType": "uint32",
          "name": "_endAt",
          "type": "uint32"
        }
      ],
      "name": "launch",
      "outputs": [],
      "stateMutability": "nonpayable",
      "type": "function"
    },
    {
      "inputs": [],
      "name": "maxDuration",
      "outputs": [
        {
          "internalType": "uint256",
          "name": "",
          "type": "uint256"
        }
      ],
      "stateMutability": "view",
      "type": "function"
    },
    {
      "inputs": [
        {
          "internalType": "uint256",
          "name": "_id",
          "type": "uint256"
        }
      ],
      "name": "refund",
      "outputs": [],
      "stateMutability": "nonpayable",
      "type": "function"
    },
    {
      "inputs": [
        {
          "internalType": "uint256",
          "name": "",
          "type": "uint256"
        },
        {
          "internalType": "address",
          "name": "",
          "type": "address"
        }
      ],
      "name": "totalInvested",
      "outputs": [
        {
          "internalType": "uint256",
          "name": "",
          "type": "uint256"
        }
      ],
      "stateMutability": "view",
      "type": "function"
    },
    {
      "inputs": [
        {
          "internalType": "uint256",
          "name": "_id",
          "type": "uint256"
        }
      ],
      "name": "withdraw",
      "outputs": [],
      "stateMutability": "nonpayable",
      "type": "function"
    }
  ],
  "bytecode": "0x608060405234801561001057600080fd5b5033600260006101000a81548173ffffffffffffffffffffffffffffffffffffffff021916908373ffffffffffffffffffffffffffffffffffffffff16021790555062278d006001819055506118028061006b6000396000f3fe6080604052600436106100865760003560e01c806340e58ee51161005957806340e58ee5146101245780635a4068d31461014d5780636db5c8fd146101765780639355048a146101a157806395b53837146101de57610086565b806306661abd1461008b578063278ecde1146100b65780632afcf480146100df5780632e1a7d4d146100fb575b600080fd5b34801561009757600080fd5b506100a0610220565b6040516100ad9190610e27565b60405180910390f35b3480156100c257600080fd5b506100dd60048036038101906100d89190610e7d565b610226565b005b6100f960048036038101906100f49190610e7d565b610511565b005b34801561010757600080fd5b50610122600480360381019061011d9190610e7d565b610687565b005b34801561013057600080fd5b5061014b60048036038101906101469190610e7d565b610815565b005b34801561015957600080fd5b50610174600480360381019061016f919061102d565b610ae5565b005b34801561018257600080fd5b5061018b610d08565b6040516101989190610e27565b60405180910390f35b3480156101ad57600080fd5b506101c860048036038101906101c391906110cb565b610d0e565b6040516101d59190610e27565b60405180910390f35b3480156101ea57600080fd5b5061020560048036038101906102009190610e7d565b610d33565b60405161021796959493929190611135565b60405180910390f35b60005481565b6000600360008381526020019081526020016000206040518060e00160405290816000820160009054906101000a900473ffffffffffffffffffffffffffffffffffffffff1673ffffffffffffffffffffffffffffffffffffffff1673ffffffffffffffffffffffffffffffffffffffff168152602001600182016003806020026040519081016040528092919082600380156102d8576020028201915b8154815260200190600101908083116102c4575b50505050508152602001600482015481526020016005820154815260200160068201548152602001600782015481526020016008820160009054906101000a900460ff16151515158152505090508060a00151421161036c576040517f08c379a0000000000000000000000000000000000000000000000000000000008152600401610363906111f3565b60405180910390fd5b60006004600084815260200190815260200160002060003373ffffffffffffffffffffffffffffffffffffffff1673ffffffffffffffffffffffffffffffffffffffff16815260200190815260200160002054905060006004600085815260200190815260200160002060003373ffffffffffffffffffffffffffffffffffffffff1673ffffffffffffffffffffffffffffffffffffffff168152602001908152602001600020819055506000826000015173ffffffffffffffffffffffffffffffffffffffff166001600585604001516104479190611242565b6104519190611276565b60405161045d906112e9565b60006040518083038185875af1925050503d806000811461049a576040519150601f19603f3d011682016040523d82523d6000602084013e61049f565b606091505b5050905080156104bb5760018360c00190151590811515815250505b3373ffffffffffffffffffffffffffffffffffffffff167f21e12a7cad0da5928167e1084ea4d5fdf8d9af66657a2543a9ac76a0ca08147785846040516105039291906112fe565b60405180910390a250505050565b60006003600083815260200190815260200160002090506000341161056b576040517f08c379a000000000000000000000000000000000000000000000000000000000815260040161056290611373565b60405180910390fd5b80600701544211156105b2576040517f08c379a00000000000000000000000000000000000000000000000000000000081526004016105a9906113df565b60405180910390fd5b348160040160008282546105c691906113ff565b92505081905550346004600084815260200190815260200160002060003373ffffffffffffffffffffffffffffffffffffffff1673ffffffffffffffffffffffffffffffffffffffff168152602001908152602001600020600082825461062d91906113ff565b925050819055503373ffffffffffffffffffffffffffffffffffffffff16827f22362fd53da7e9833dab2bb7adb521163c164fb314a070b76b7fafb0ca4fd8c43460405161067b9190610e27565b60405180910390a35050565b60006003600083815260200190815260200160002090506000600290505b60008110610810578160010181600381106106c3576106c2611433565b5b01548260040154106107fd5760008260000160009054906101000a900473ffffffffffffffffffffffffffffffffffffffff1673ffffffffffffffffffffffffffffffffffffffff166001846004015461071d9190611276565b604051610729906112e9565b60006040518083038185875af1925050503d8060008114610766576040519150601f19603f3d011682016040523d82523d6000602084013e61076b565b606091505b50509050806107af576040517f08c379a00000000000000000000000000000000000000000000000000000000081526004016107a6906114ae565b60405180910390fd5b80156107fb5782600401548360050160008282546107cd91906113ff565b92505081905550600282036107fa5760018360080160006101000a81548160ff0219169083151502179055505b5b505b8080610808906114ce565b9150506106a5565b505050565b6000600360008381526020019081526020016000206040518060e00160405290816000820160009054906101000a900473ffffffffffffffffffffffffffffffffffffffff1673ffffffffffffffffffffffffffffffffffffffff1673ffffffffffffffffffffffffffffffffffffffff168152602001600182016003806020026040519081016040528092919082600380156108c7576020028201915b8154815260200190600101908083116108b3575b50505050508152602001600482015481526020016005820154815260200160068201548152602001600782015481526020016008820160009054906101000a900460ff16151515158152505090503373ffffffffffffffffffffffffffffffffffffffff16816000015173ffffffffffffffffffffffffffffffffffffffff1614806109a45750600260009054906101000a900473ffffffffffffffffffffffffffffffffffffffff1673ffffffffffffffffffffffffffffffffffffffff16816000015173ffffffffffffffffffffffffffffffffffffffff16145b6109e3576040517f08c379a00000000000000000000000000000000000000000000000000000000081526004016109da90611543565b60405180910390fd5b80608001514210610a29576040517f08c379a0000000000000000000000000000000000000000000000000000000008152600401610a20906115af565b60405180910390fd5b60036000838152602001908152602001600020600080820160006101000a81549073ffffffffffffffffffffffffffffffffffffffff0219169055600182016000610a749190610d9c565b60048201600090556005820160009055600682016000905560078201600090556008820160006101000a81549060ff021916905550507f8bf30e7ff26833413be5f69e1d373744864d600b664204b4a2f9844a8eedb9ed82604051610ad99190610e27565b60405180910390a15050565b428163ffffffff1611610b2d576040517f08c379a0000000000000000000000000000000000000000000000000000000008152600401610b249061161b565b60405180910390fd5b60015442610b3b91906113ff565b8163ffffffff161115610b83576040517f08c379a0000000000000000000000000000000000000000000000000000000008152600401610b7a906116ad565b60405180910390fd5b6040518060e001604052803373ffffffffffffffffffffffffffffffffffffffff16815260200183815260200160008152602001600081526020014281526020018263ffffffff16815260200160001515815250600360008054815260200190815260200160002060008201518160000160006101000a81548173ffffffffffffffffffffffffffffffffffffffff021916908373ffffffffffffffffffffffffffffffffffffffff160217905550602082015181600101906003610c49929190610db1565b5060408201518160040155606082015181600501556080820151816006015560a0820151816007015560c08201518160080160006101000a81548160ff0219169083151502179055509050506001600080828254610ca791906113ff565b925050819055503373ffffffffffffffffffffffffffffffffffffffff167fb51a2a4d1ccb877da5f3f0a3f959fdab1a5916c1d0a2787f0730f59768fd2fc9600054844285604051610cfc9493929190611787565b60405180910390a25050565b60015481565b6004602052816000526040600020602052806000526040600020600091509150505481565b60036020528060005260406000206000915090508060000160009054906101000a900473ffffffffffffffffffffffffffffffffffffffff16908060040154908060050154908060060154908060070154908060080160009054906101000a900460ff16905086565b50600081556001016000815560010160009055565b8260038101928215610de0579160200282015b82811115610ddf578251825591602001919060010190610dc4565b5b509050610ded9190610df1565b5090565b5b80821115610e0a576000816000905550600101610df2565b5090565b6000819050919050565b610e2181610e0e565b82525050565b6000602082019050610e3c6000830184610e18565b92915050565b6000604051905090565b600080fd5b610e5a81610e0e565b8114610e6557600080fd5b50565b600081359050610e7781610e51565b92915050565b600060208284031215610e9357610e92610e4c565b5b6000610ea184828501610e68565b91505092915050565b600080fd5b6000601f19601f8301169050919050565b7f4e487b7100000000000000000000000000000000000000000000000000000000600052604160045260246000fd5b610ef882610eaf565b810181811067ffffffffffffffff82111715610f1757610f16610ec0565b5b80604052505050565b6000610f2a610e42565b9050610f368282610eef565b919050565b600067ffffffffffffffff821115610f5657610f55610ec0565b5b602082029050919050565b600080fd5b6000610f79610f7484610f3b565b610f20565b90508060208402830185811115610f9357610f92610f61565b5b835b81811015610fbc5780610fa88882610e68565b845260208401935050602081019050610f95565b5050509392505050565b600082601f830112610fdb57610fda610eaa565b5b6003610fe8848285610f66565b91505092915050565b600063ffffffff82169050919050565b61100a81610ff1565b811461101557600080fd5b50565b60008135905061102781611001565b92915050565b6000806080838503121561104457611043610e4c565b5b600061105285828601610fc6565b925050606061106385828601611018565b9150509250929050565b600073ffffffffffffffffffffffffffffffffffffffff82169050919050565b60006110988261106d565b9050919050565b6110a88161108d565b81146110b357600080fd5b50565b6000813590506110c58161109f565b92915050565b600080604083850312156110e2576110e1610e4c565b5b60006110f085828601610e68565b9250506020611101858286016110b6565b9150509250929050565b6111148161108d565b82525050565b60008115159050919050565b61112f8161111a565b82525050565b600060c08201905061114a600083018961110b565b6111576020830188610e18565b6111646040830187610e18565b6111716060830186610e18565b61117e6080830185610e18565b61118b60a0830184611126565b979650505050505050565b600082825260208201905092915050565b7f6e6f7420656e6465640000000000000000000000000000000000000000000000600082015250565b60006111dd600983611196565b91506111e8826111a7565b602082019050919050565b6000602082019050818103600083015261120c816111d0565b9050919050565b7f4e487b7100000000000000000000000000000000000000000000000000000000600052601160045260246000fd5b600061124d82610e0e565b915061125883610e0e565b92508282039050818111156112705761126f611213565b5b92915050565b600061128182610e0e565b915061128c83610e0e565b925082820261129a81610e0e565b915082820484148315176112b1576112b0611213565b5b5092915050565b600081905092915050565b50565b60006112d36000836112b8565b91506112de826112c3565b600082019050919050565b60006112f4826112c6565b9150819050919050565b60006040820190506113136000830185610e18565b6113206020830184610e18565b9392505050565b7f43616e6e6f7420696e76657374206e6f7468696e672100000000000000000000600082015250565b600061135d601683611196565b915061136882611327565b602082019050919050565b6000602082019050818103600083015261138c81611350565b9050919050565b7f43616d706169676e2068617320616c726561647920656e646564000000000000600082015250565b60006113c9601a83611196565b91506113d482611393565b602082019050919050565b600060208201905081810360008301526113f8816113bc565b9050919050565b600061140a82610e0e565b915061141583610e0e565b925082820190508082111561142d5761142c611213565b5b92915050565b7f4e487b7100000000000000000000000000000000000000000000000000000000600052603260045260246000fd5b7f4661696c656420546f205769746864726177205468652046756e647300000000600082015250565b6000611498601c83611196565b91506114a382611462565b602082019050919050565b600060208201905081810360008301526114c78161148b565b9050919050565b60006114d982610e0e565b9150600082036114ec576114eb611213565b5b600182039050919050565b7f596f7520646964206e6f742063726561746520746869732043616d706169676e600082015250565b600061152d602083611196565b9150611538826114f7565b602082019050919050565b6000602082019050818103600083015261155c81611520565b9050919050565b7f43616d706169676e2068617320616c7265616479207374617274656400000000600082015250565b6000611599601c83611196565b91506115a482611563565b602082019050919050565b600060208201905081810360008301526115c88161158c565b9050919050565b7f456e642074696d65206973206c657373207468616e2053746172742074696d65600082015250565b6000611605602083611196565b9150611610826115cf565b602082019050919050565b60006020820190508181036000830152611634816115f8565b9050919050565b7f456e642074696d65206578636565647320746865206d6178696d756d2044757260008201527f6174696f6e000000000000000000000000000000000000000000000000000000602082015250565b6000611697602583611196565b91506116a28261163b565b604082019050919050565b600060208201905081810360008301526116c68161168a565b9050919050565b600060039050919050565b600081905092915050565b6000819050919050565b6116f681610e0e565b82525050565b600061170883836116ed565b60208301905092915050565b6000602082019050919050565b61172a816116cd565b61173481846116d8565b925061173f826116e3565b8060005b8381101561177057815161175787826116fc565b965061176283611714565b925050600181019050611743565b505050505050565b61178181610ff1565b82525050565b600060c08201905061179c6000830187610e18565b6117a96020830186611721565b6117b66080830185610e18565b6117c360a0830184611778565b9594505050505056fea2646970667358221220b6feba989d2a49cdb8b9876cb00f5e84a33309eebb91aa825bf9e67f44cb5dc564736f6c63430008140033",
  "linkReferences": {},
  "deployedLinkReferences": {}
}