{
  "_format": "hh-sol-artifact-1",
  "contractName": "Pappadam",
  "sourceName": "contracts/Pappadam.sol",
  "abi": [
    {
      "inputs": [],
      "stateMutability": "nonpayable",
      "type": "constructor"
    },
    {
      "inputs": [
        {
          "internalType": "address",
          "name": "spender",
          "type": "address"
        },
        {
          "internalType": "uint256",
          "name": "allowance",
          "type": "uint256"
        },
        {
          "internalType": "uint256",
          "name": "needed",
          "type": "uint256"
        }
      ],
      "name": "ERC20InsufficientAllowance",
      "type": "error"
    },
    {
      "inputs": [
        {
          "internalType": "address",
          "name": "sender",
          "type": "address"
        },
        {
          "internalType": "uint256",
          "name": "balance",
          "type": "uint256"
        },
        {
          "internalType": "uint256",
          "name": "needed",
          "type": "uint256"
        }
      ],
      "name": "ERC20InsufficientBalance",
      "type": "error"
    },
    {
      "inputs": [
        {
          "internalType": "address",
          "name": "approver",
          "type": "address"
        }
      ],
      "name": "ERC20InvalidApprover",
      "type": "error"
    },
    {
      "inputs": [
        {
          "internalType": "address",
          "name": "receiver",
          "type": "address"
        }
      ],
      "name": "ERC20InvalidReceiver",
      "type": "error"
    },
    {
      "inputs": [
        {
          "internalType": "address",
          "name": "sender",
          "type": "address"
        }
      ],
      "name": "ERC20InvalidSender",
      "type": "error"
    },
    {
      "inputs": [
        {
          "internalType": "address",
          "name": "spender",
          "type": "address"
        }
      ],
      "name": "ERC20InvalidSpender",
      "type": "error"
    },
    {
      "anonymous": false,
      "inputs": [
        {
          "indexed": true,
          "internalType": "address",
          "name": "owner",
          "type": "address"
        },
        {
          "indexed": true,
          "internalType": "address",
          "name": "spender",
          "type": "address"
        },
        {
          "indexed": false,
          "internalType": "uint256",
          "name": "value",
          "type": "uint256"
        }
      ],
      "name": "Approval",
      "type": "event"
    },
    {
      "anonymous": false,
      "inputs": [
        {
          "indexed": true,
          "internalType": "address",
          "name": "from",
          "type": "address"
        },
        {
          "indexed": true,
          "internalType": "address",
          "name": "to",
          "type": "address"
        },
        {
          "indexed": false,
          "internalType": "uint256",
          "name": "value",
          "type": "uint256"
        }
      ],
      "name": "Transfer",
      "type": "event"
    },
    {
      "inputs": [
        {
          "internalType": "address",
          "name": "owner",
          "type": "address"
        },
        {
          "internalType": "address",
          "name": "spender",
          "type": "address"
        }
      ],
      "name": "allowance",
      "outputs": [
        {
          "internalType": "uint256",
          "name": "",
          "type": "uint256"
        }
      ],
      "stateMutability": "view",
      "type": "function"
    },
    {
      "inputs": [
        {
          "internalType": "address",
          "name": "spender",
          "type": "address"
        },
        {
          "internalType": "uint256",
          "name": "value",
          "type": "uint256"
        }
      ],
      "name": "approve",
      "outputs": [
        {
          "internalType": "bool",
          "name": "",
          "type": "bool"
        }
      ],
      "stateMutability": "nonpayable",
      "type": "function"
    },
    {
      "inputs": [
        {
          "internalType": "address",
          "name": "account",
          "type": "address"
        }
      ],
      "name": "balanceOf",
      "outputs": [
        {
          "internalType": "uint256",
          "name": "",
          "type": "uint256"
        }
      ],
      "stateMutability": "view",
      "type": "function"
    },
    {
      "inputs": [
        {
          "internalType": "uint256",
          "name": "amount",
          "type": "uint256"
        }
      ],
      "name": "burn",
      "outputs": [],
      "stateMutability": "nonpayable",
      "type": "function"
    },
    {
      "inputs": [],
      "name": "buy",
      "outputs": [],
      "stateMutability": "payable",
      "type": "function"
    },
    {
      "inputs": [],
      "name": "decimals",
      "outputs": [
        {
          "internalType": "uint8",
          "name": "",
          "type": "uint8"
        }
      ],
      "stateMutability": "view",
      "type": "function"
    },
    {
      "inputs": [],
      "name": "name",
      "outputs": [
        {
          "internalType": "string",
          "name": "",
          "type": "string"
        }
      ],
      "stateMutability": "view",
      "type": "function"
    },
    {
      "inputs": [],
      "name": "symbol",
      "outputs": [
        {
          "internalType": "string",
          "name": "",
          "type": "string"
        }
      ],
      "stateMutability": "view",
      "type": "function"
    },
    {
      "inputs": [],
      "name": "totalSupply",
      "outputs": [
        {
          "internalType": "uint256",
          "name": "",
          "type": "uint256"
        }
      ],
      "stateMutability": "view",
      "type": "function"
    },
    {
      "inputs": [
        {
          "internalType": "address",
          "name": "to",
          "type": "address"
        },
        {
          "internalType": "uint256",
          "name": "value",
          "type": "uint256"
        }
      ],
      "name": "transfer",
      "outputs": [
        {
          "internalType": "bool",
          "name": "",
          "type": "bool"
        }
      ],
      "stateMutability": "nonpayable",
      "type": "function"
    },
    {
      "inputs": [
        {
          "internalType": "address",
          "name": "from",
          "type": "address"
        },
        {
          "internalType": "address",
          "name": "to",
          "type": "address"
        },
        {
          "internalType": "uint256",
          "name": "value",
          "type": "uint256"
        }
      ],
      "name": "transferFrom",
      "outputs": [
        {
          "internalType": "bool",
          "name": "",
          "type": "bool"
        }
      ],
      "stateMutability": "nonpayable",
      "type": "function"
    }
  ],
  "bytecode": "0x608060405260646005553480156200001657600080fd5b506040518060400160405280600d81526020017f5061707061646d20546f6b656e000000000000000000000000000000000000008152506040518060400160405280600381526020017f50444d0000000000000000000000000000000000000000000000000000000000815250816003908162000094919062000329565b508060049081620000a6919062000329565b50505062000410565b600081519050919050565b7f4e487b7100000000000000000000000000000000000000000000000000000000600052604160045260246000fd5b7f4e487b7100000000000000000000000000000000000000000000000000000000600052602260045260246000fd5b600060028204905060018216806200013157607f821691505b602082108103620001475762000146620000e9565b5b50919050565b60008190508160005260206000209050919050565b60006020601f8301049050919050565b600082821b905092915050565b600060088302620001b17fffffffffffffffffffffffffffffffffffffffffffffffffffffffffffffffff8262000172565b620001bd868362000172565b95508019841693508086168417925050509392505050565b6000819050919050565b6000819050919050565b60006200020a62000204620001fe84620001d5565b620001df565b620001d5565b9050919050565b6000819050919050565b6200022683620001e9565b6200023e620002358262000211565b8484546200017f565b825550505050565b600090565b6200025562000246565b620002628184846200021b565b505050565b5b818110156200028a576200027e6000826200024b565b60018101905062000268565b5050565b601f821115620002d957620002a3816200014d565b620002ae8462000162565b81016020851015620002be578190505b620002d6620002cd8562000162565b83018262000267565b50505b505050565b600082821c905092915050565b6000620002fe60001984600802620002de565b1980831691505092915050565b6000620003198383620002eb565b9150826002028217905092915050565b6200033482620000af565b67ffffffffffffffff81111562000350576200034f620000ba565b5b6200035c825462000118565b620003698282856200028e565b600060209050601f831160018114620003a157600084156200038c578287015190505b6200039885826200030b565b86555062000408565b601f198416620003b1866200014d565b60005b82811015620003db57848901518255600182019150602085019450602081019050620003b4565b86831015620003fb5784890151620003f7601f891682620002eb565b8355505b6001600288020188555050505b505050505050565b61121b80620004206000396000f3fe60806040526004361061009c5760003560e01c806342966c681161006457806342966c681461019c57806370a08231146101c557806395d89b4114610202578063a6f2ae3a1461022d578063a9059cbb14610237578063dd62ed3e146102745761009c565b806306fdde03146100a1578063095ea7b3146100cc57806318160ddd1461010957806323b872dd14610134578063313ce56714610171575b600080fd5b3480156100ad57600080fd5b506100b66102b1565b6040516100c39190610d0a565b60405180910390f35b3480156100d857600080fd5b506100f360048036038101906100ee9190610dc5565b610343565b6040516101009190610e20565b60405180910390f35b34801561011557600080fd5b5061011e610366565b60405161012b9190610e4a565b60405180910390f35b34801561014057600080fd5b5061015b60048036038101906101569190610e65565b610370565b6040516101689190610e20565b60405180910390f35b34801561017d57600080fd5b5061018661039f565b6040516101939190610ed4565b60405180910390f35b3480156101a857600080fd5b506101c360048036038101906101be9190610eef565b6103a8565b005b3480156101d157600080fd5b506101ec60048036038101906101e79190610f1c565b6103b5565b6040516101f99190610e4a565b60405180910390f35b34801561020e57600080fd5b506102176103fd565b6040516102249190610d0a565b60405180910390f35b61023561048f565b005b34801561024357600080fd5b5061025e60048036038101906102599190610dc5565b61052e565b60405161026b9190610e20565b60405180910390f35b34801561028057600080fd5b5061029b60048036038101906102969190610f49565b610551565b6040516102a89190610e4a565b60405180910390f35b6060600380546102c090610fb8565b80601f01602080910402602001604051908101604052809291908181526020018280546102ec90610fb8565b80156103395780601f1061030e57610100808354040283529160200191610339565b820191906000526020600020905b81548152906001019060200180831161031c57829003601f168201915b5050505050905090565b60008061034e6105d8565b905061035b8185856105e0565b600191505092915050565b6000600254905090565b60008061037b6105d8565b90506103888582856105f2565b610393858585610686565b60019150509392505050565b60006012905090565b6103b2338261077a565b50565b60008060008373ffffffffffffffffffffffffffffffffffffffff1673ffffffffffffffffffffffffffffffffffffffff168152602001908152602001600020549050919050565b60606004805461040c90610fb8565b80601f016020809104026020016040519081016040528092919081815260200182805461043890610fb8565b80156104855780601f1061045a57610100808354040283529160200191610485565b820191906000526020600020905b81548152906001019060200180831161046857829003601f168201915b5050505050905090565b600034116104d2576040517f08c379a00000000000000000000000000000000000000000000000000000000081526004016104c990611035565b60405180910390fd5b60643411610515576040517f08c379a000000000000000000000000000000000000000000000000000000000815260040161050c906110a1565b60405180910390fd5b61052c3360055434610527919061111f565b6107fc565b565b6000806105396105d8565b9050610546818585610686565b600191505092915050565b6000600160008473ffffffffffffffffffffffffffffffffffffffff1673ffffffffffffffffffffffffffffffffffffffff16815260200190815260200160002060008373ffffffffffffffffffffffffffffffffffffffff1673ffffffffffffffffffffffffffffffffffffffff16815260200190815260200160002054905092915050565b600033905090565b6105ed838383600161087e565b505050565b60006105fe8484610551565b90507fffffffffffffffffffffffffffffffffffffffffffffffffffffffffffffffff81146106805781811015610670578281836040517ffb8f41b20000000000000000000000000000000000000000000000000000000081526004016106679392919061115f565b60405180910390fd5b61067f8484848403600061087e565b5b50505050565b600073ffffffffffffffffffffffffffffffffffffffff168373ffffffffffffffffffffffffffffffffffffffff16036106f85760006040517f96c6fd1e0000000000000000000000000000000000000000000000000000000081526004016106ef9190611196565b60405180910390fd5b600073ffffffffffffffffffffffffffffffffffffffff168273ffffffffffffffffffffffffffffffffffffffff160361076a5760006040517fec442f050000000000000000000000000000000000000000000000000000000081526004016107619190611196565b60405180910390fd5b610775838383610a55565b505050565b600073ffffffffffffffffffffffffffffffffffffffff168273ffffffffffffffffffffffffffffffffffffffff16036107ec5760006040517f96c6fd1e0000000000000000000000000000000000000000000000000000000081526004016107e39190611196565b60405180910390fd5b6107f882600083610a55565b5050565b600073ffffffffffffffffffffffffffffffffffffffff168273ffffffffffffffffffffffffffffffffffffffff160361086e5760006040517fec442f050000000000000000000000000000000000000000000000000000000081526004016108659190611196565b60405180910390fd5b61087a60008383610a55565b5050565b600073ffffffffffffffffffffffffffffffffffffffff168473ffffffffffffffffffffffffffffffffffffffff16036108f05760006040517fe602df050000000000000000000000000000000000000000000000000000000081526004016108e79190611196565b60405180910390fd5b600073ffffffffffffffffffffffffffffffffffffffff168373ffffffffffffffffffffffffffffffffffffffff16036109625760006040517f94280d620000000000000000000000000000000000000000000000000000000081526004016109599190611196565b60405180910390fd5b81600160008673ffffffffffffffffffffffffffffffffffffffff1673ffffffffffffffffffffffffffffffffffffffff16815260200190815260200160002060008573ffffffffffffffffffffffffffffffffffffffff1673ffffffffffffffffffffffffffffffffffffffff168152602001908152602001600020819055508015610a4f578273ffffffffffffffffffffffffffffffffffffffff168473ffffffffffffffffffffffffffffffffffffffff167f8c5be1e5ebec7d5bd14f71427d1e84f3dd0314c0f7b2291e5b200ac8c7c3b92584604051610a469190610e4a565b60405180910390a35b50505050565b600073ffffffffffffffffffffffffffffffffffffffff168373ffffffffffffffffffffffffffffffffffffffff1603610aa7578060026000828254610a9b91906111b1565b92505081905550610b7a565b60008060008573ffffffffffffffffffffffffffffffffffffffff1673ffffffffffffffffffffffffffffffffffffffff16815260200190815260200160002054905081811015610b33578381836040517fe450d38c000000000000000000000000000000000000000000000000000000008152600401610b2a9392919061115f565b60405180910390fd5b8181036000808673ffffffffffffffffffffffffffffffffffffffff1673ffffffffffffffffffffffffffffffffffffffff16815260200190815260200160002081905550505b600073ffffffffffffffffffffffffffffffffffffffff168273ffffffffffffffffffffffffffffffffffffffff1603610bc35780600260008282540392505081905550610c10565b806000808473ffffffffffffffffffffffffffffffffffffffff1673ffffffffffffffffffffffffffffffffffffffff168152602001908152602001600020600082825401925050819055505b8173ffffffffffffffffffffffffffffffffffffffff168373ffffffffffffffffffffffffffffffffffffffff167fddf252ad1be2c89b69c2b068fc378daa952ba7f163c4a11628f55a4df523b3ef83604051610c6d9190610e4a565b60405180910390a3505050565b600081519050919050565b600082825260208201905092915050565b60005b83811015610cb4578082015181840152602081019050610c99565b60008484015250505050565b6000601f19601f8301169050919050565b6000610cdc82610c7a565b610ce68185610c85565b9350610cf6818560208601610c96565b610cff81610cc0565b840191505092915050565b60006020820190508181036000830152610d248184610cd1565b905092915050565b600080fd5b600073ffffffffffffffffffffffffffffffffffffffff82169050919050565b6000610d5c82610d31565b9050919050565b610d6c81610d51565b8114610d7757600080fd5b50565b600081359050610d8981610d63565b92915050565b6000819050919050565b610da281610d8f565b8114610dad57600080fd5b50565b600081359050610dbf81610d99565b92915050565b60008060408385031215610ddc57610ddb610d2c565b5b6000610dea85828601610d7a565b9250506020610dfb85828601610db0565b9150509250929050565b60008115159050919050565b610e1a81610e05565b82525050565b6000602082019050610e356000830184610e11565b92915050565b610e4481610d8f565b82525050565b6000602082019050610e5f6000830184610e3b565b92915050565b600080600060608486031215610e7e57610e7d610d2c565b5b6000610e8c86828701610d7a565b9350506020610e9d86828701610d7a565b9250506040610eae86828701610db0565b9150509250925092565b600060ff82169050919050565b610ece81610eb8565b82525050565b6000602082019050610ee96000830184610ec5565b92915050565b600060208284031215610f0557610f04610d2c565b5b6000610f1384828501610db0565b91505092915050565b600060208284031215610f3257610f31610d2c565b5b6000610f4084828501610d7a565b91505092915050565b60008060408385031215610f6057610f5f610d2c565b5b6000610f6e85828601610d7a565b9250506020610f7f85828601610d7a565b9150509250929050565b7f4e487b7100000000000000000000000000000000000000000000000000000000600052602260045260246000fd5b60006002820490506001821680610fd057607f821691505b602082108103610fe357610fe2610f89565b5b50919050565b7f596f75206d7573742073656e6420736f6d652065746865720000000000000000600082015250565b600061101f601883610c85565b915061102a82610fe9565b602082019050919050565b6000602082019050818103600083015261104e81611012565b9050919050565b7f6d696e2031303000000000000000000000000000000000000000000000000000600082015250565b600061108b600783610c85565b915061109682611055565b602082019050919050565b600060208201905081810360008301526110ba8161107e565b9050919050565b7f4e487b7100000000000000000000000000000000000000000000000000000000600052601260045260246000fd5b7f4e487b7100000000000000000000000000000000000000000000000000000000600052601160045260246000fd5b600061112a82610d8f565b915061113583610d8f565b925082611145576111446110c1565b5b828204905092915050565b61115981610d51565b82525050565b60006060820190506111746000830186611150565b6111816020830185610e3b565b61118e6040830184610e3b565b949350505050565b60006020820190506111ab6000830184611150565b92915050565b60006111bc82610d8f565b91506111c783610d8f565b92508282019050808211156111df576111de6110f0565b5b9291505056fea26469706673582212208e57c9a6c475ef389356a5bc08a1d45e8cd9018c47ee39d0da48f2f7e421d50864736f6c63430008140033",
  "linkReferences": {},
  "deployedLinkReferences": {}
}